:020000040800F2
:10000000601C002051020008912400085F210008B4
:100010008D24000867170008492C00080000000024
:100020000000000000000000000000007926000829
:10003000791F0008000000000D250008A92700080E
:100040006B0200086B0200086B0200086B020008DC
:100050006B0200086B0200087D1F0008911F00085A
:100060006B0200086B0200086B0200086B020008BC
:100070006D1700086B0200086B0200086B02000895
:100080006B0200086B0200086B0200086B0200089C
:100090006B0200086B0200086B0200086B0200088C
:1000A0006B0200086B0200086B0200086B0200087C
:1000B0006B0200086B0200086B0200086B0200086C
:1000C0006B0200086B0200086B0200086B0200085C
:1000D0006B0200086B0200086B0200086B0200084C
:1000E0006B0200086B0200086B0200086B0200083C
:1000F0006B0200086B0200086B0200086B0200082C
:100100006B0200086B0200086B0200086B0200081B
:100110006B0200086B0200086B0200082D28000823
:100120006B0200086B0200086B0200086B020008FB
:100130006B0200086B0200086B0200086B020008EB
:100140006B0200086B0200086B0200086B020008DB
:100150006B0200086B0200086B0200086B020008CB
:100160006B0200086B0200086B0200086B020008BB
:100170006B0200086B0200086B0200086B020008AB
:100180006B0200086B02000800F002F800F050F863
:100190000AA090E8000C82448344AAF10107DA45E2
:1001A00001D100F045F8AFF2090EBAE80F0013F0E4
:1001B000010F18BFFB1A43F001031847E844000081
:1001C00008450000103A24BF78C878C1FAD8520711
:1001D00024BF30C830C144BF04680C6070470000C1
:1001E0000023002400250026103A28BF78C1FBD840
:1001F000520728BF30C148BF0B607047662903F023
:10020000ED87642900F0BC80002070471FB503F023
:10021000E0FF9DE8030000F0C7F900F0CFFC040008
:100220000020002103F048FFE0601FBD10B510BDA5
:1002300000F00EFE1146FFF7E9FF03F0D3FA00F0DD
:100240002CFE03B4FFF7F2FF03BC00F09DFE00009C
:100250000948804709480047FEE7FEE7FEE7FEE75A
:10026000FEE7FEE7FEE7FEE7FEE7FEE70448054996
:10027000054A064B70470000C527000889010008A1
:1002800060160020601C002060180020601800200C
:1002900070B5A0FB0140B4F1805170F1000024BFA3
:1002A000002070BD204600F0AEF905001CBF2146BD
:1002B00000F05DFC284670BD70B50446051F00F0D7
:1002C00057F90068002C14BF446870BD002C18BF9B
:1002D000AC423CBF20466468F8D301680A18AA42C1
:1002E00018BF456003D12A6805461144016028689B
:1002F0004119A1421CBF6C6070BD616869602168D2
:100300000844286070BD00000FB41CB5074B06AA56
:100310007B4469460090059800F011FC0020694676
:1003200000F020FC1CBC5DF814FB0000510800002C
:1003300070B5044685690068C10601D5302600E025
:100340002026C00707D070BDD4E901213046904770
:10035000206A401C20626D1EF6D570BD70B5044643
:1003600085690078C00707D170BDD4E9012120203C
:100370009047206A401C20626D1EF6D570BD0000BB
:100380002DE9F0410646002410687529314616A56E
:1003900010D0AFF30080002802DA404213A507E036
:1003A00031688A0701D512A502E0490704D511A5D5
:1003B000012401E0AFF3008000210A2206F12407A6
:1003C00009E0B0FBF2FCB0FBF2F302FB1C003030A2
:1003D00078541846491C0028F3D123462A46304653
:1003E000BDE8F04100F03EB9000000002D00000023
:1003F0002B000000200000002DE9F0474FF0000A1C
:1004000089460446C0F820A02046E16888470028B5
:1004100076D0252806D0D4E901219047206A401CD7
:100420002062F1E7E168204600258847C4F81CA057
:1004300006460027C4F818A02A2E09D0304602F03C
:100440001DFC38B304EB8708303EC8F8186019E08B
:1004500059F8041B204604EB87029161E168884744
:10046000012F064618D1E069002820DA25F0200582
:100470001DE0D8F8180000EB800006EB4000303893
:10048000C8F818002046E1688847064602F0F6FBE7
:100490000028EED1012F0AD02E2E08D12046E16887
:1004A00088477F1C0646022F45F02005C4DBA06963
:1004B000002803DA404245F00105A061E80701D0B9
:1004C00025F01005B6B1A6F14100192802D8203652
:1004D00045F400654A463146204625604D46FFF703
:1004E0008DFE58B1012806D0ED1D25F0070000F162
:1004F000080989E704E005F1040985E730468AE741
:10050000206ABDE8F08730B505460B462A4613F849
:10051000014B12F8010B08B1A042F8D01CB1002821
:1005200002D06D1CF1E7284630BD10B5431C02E037
:1005300010F8011B71B18107FAD14FF0013202C8E6
:100540008C1A8C4314EAC211F9D0C01A0A0603D0DF
:10055000C01E10BDC01A10BD0A0401D0801E10BDFF
:100560000902FCD0401E10BD704770477047000064
:100570000048704704160020704770477047704766
:1005800038B504460A4600206946AFF300800028CB
:1005900008BF38BD02460099204600F01AFB012032
:1005A00038BD012000F026BCF8B5AFF30080054649
:1005B00000200C46102000BF0646A819A0420DD905
:1005C000324669460020AFF30080070008BF00F004
:1005D00011FC0098A04218BF0546C419FFF7C8FFD8
:1005E00005600746F01D20F007004619284600F078
:1005F000E9FAB44208BFF8BDA21B31463868BDE82D
:10060000F84000F0E6BA70B50646FFF7B1FF05689E
:1006100006F10B0020F00704B4429CBF002070BD1F
:100620002B466A68BAB11068A04210D304F10801E1
:1006300088423CBF5068586007D351681019416028
:100640001168091B016058601460101D70BD1346CD
:100650005268002AE7D121462846FFF791FF00287B
:10066000DED170BD2DE9F0470D469946924604460D
:1006700000F124080168880604D5E06921F0100122
:10068000216000E00120A84201DD471B00E00027B7
:10069000A1697A1902EB0900081AA0612078C00646
:1006A00002D42046FFF744FE002608E0D4E90121E9
:1006B0001AF806009047206A401C761C20624E45BE
:1006C000F4DB2078C0060AD52046FFF731FE06E0AD
:1006D000D4E9012130209047206A401C2062381E56
:1006E000A7F10107F4DC07E0D4E9012118F80500BF
:1006F0009047206A401C2062281EA5F10105F3DC0A
:100700002046FFF72BFE2078000602D50220BDE828
:10071000F0870120FBE770472DE9FF4F0C461E468E
:100720004FF0FF378BB0D2E90001DDF860800A900E
:100730008A46C1F30A5505B93D46002108464FF0E7
:100740000000BAF1000F00F4400005DA00EB800071
:100750004FF4400101EA50004FEA9059B9F1010FFE
:1007600000DDB9460A9850EA4A000ED044F610500F
:10077000A5F2FF3545432F14B8F1000F1ED0754286
:10078000291E1EDDC9F100021CE0B8F1010F4FF077
:10079000000001D0302103E0F24305E02154401C69
:1007A000B042FBDB30460022002121540B99C1F8F6
:1007B0000880C1E900200FB0BDE8F08FBD1B6D1CA3
:1007C000DEE74A4600DA694206A800F0A1FA06AB65
:1007D00093E8070003AB83E8070050460A9900F04E
:1007E000FAFB8DE80700A0F500501F380090039831
:1007F000002D0ADD42F21F014A460844002303A9E6
:100800000390684600F063FE09E0A0F500504A46F8
:100810001F38002303A90390684600F06DFE8DE8A1
:1008200007000004000C03D04FF0FF30410800E047
:100830001046B8F1000F03D00022009215461EE0CA
:10084000751E05D400F0DFF9303262556D1EF9D502
:10085000B3460122084302D000227F1C04E0207826
:10086000302801D100227F1E002A099784D01DE084
:10087000112D07DA00F0C7F9303262556D1C50EACD
:100880000102F5D1084302D00098C8B10EE0002162
:10089000681E05E0235C625C63542254401E491CC0
:1008A0008142F7DBAB46A81B401E0990002004F8EC
:1008B0000B000B98099AC0F80880C0E9002B7AE772
:1008C00011264FF0000857E72DE9F04F88460446FF
:1008D000D21D22F0070191B0D1E90001CDE90A0152
:1008E00002F0B4F902460B98C00F01D02D2007E0AA
:1008F0002068810701D52B2002E0202101EAC000F9
:10090000032A099001D0072A05DB03464146204609
:1009100000F0BEF90BE12078800601D5E06900E027
:100920000620B8F1650F814606D0B8F1660F18D0E1
:10093000B8F1670F70D131E00020B9F1110F0090CC
:1009400001DB112301E009F101030AAA01A90CA8A6
:10095000FFF7E2FEDDE90C70002609F10105834690
:1009600047E001204B4600904FF000470AAA01A93A
:100970000CA8FFF7D1FEDDE90DB00C995D4600260D
:1009800010B909F101000D18B9EB050003D4C0F14D
:10099000FF3609F10105A5EB09002BE0B9F1010FC4
:1009A00001DA4FF001090020B9F1110F009048461B
:1009B00001DD112300E003460AAA01A90CA8FFF7F4
:1009C000ABFEDDE90C704D4600268346207800071B
:1009D0000AD4AB4500DA5D4601A8012D04DD4119BA
:1009E00011F8011C302907D04F4502DA17F1040F26
:1009F00004DA012082460FE06D1EEEE7002F02DCD4
:100A0000ED1B3E4403E0781CA84200DD7D1CB81BB2
:100A100000F1010A4FF000472078000703D4AA45EF
:100A200001DB4FF0FF3A0021B7F1004F0DF1430811
:100A30008DF8431024D002202B23002F01DA7F42AF
:100A40002D230A21021EA0F1010000DC5FB197FBFB
:100A5000F1FC97FBF1F201FB1C7C17460CF1300C0A
:100A600008F801CDEEE7A8F101000370218809051F
:100A700001D5452100E06521A0F1010800F8011C25
:100A800009980FA9A1EB0807FF1D00B1012041192A
:100A900001EBEA70A1693844081A401EA061207871
:100AA000C00602D42046FFF743FC099828B1D4E9D8
:100AB00001219047206A401C20622078C00622D580
:100AC0002046FFF735FC1EE0002E04DBB34502DDB7
:100AD00001A8805D00E03020D4E901219047206A20
:100AE000401C2062761CAAF101005FEA000A0AD1CC
:100AF00000F064F8C0680168405CD4E901219047C7
:100B0000206A401C2062281EA5F10105DCDC07E0FC
:100B1000D4E9012118F8010B9047206A401C20629B
:100B2000381EA7F10107F3DC2046FFF717FC03206E
:100B300011B041E601694A1C02610878704700B5AE
:100B40008FB0CDE901310021059105497944CDE906
:100B5000031011466846FFF74FFC0FB000BD0000C0
:100B6000E5FFFFFF0A6802F8010B0A6070474FF0CB
:100B700000020429C0F0128010F0030C00F0438141
:100B8000CCF1040CBCF1020F18BF00F8012BA8BF78
:100B900020F8022BA1EB0C0100F035B95FEAC17C13
:100BA00024BF00F8012B00F8012B48BF00F8012BEF
:100BB0007047000000487047FC150020004870474F
:100BC0001C16002000210160C0E9011070471020B0
:100BD0007047034640688C46002818BF88423CBFD7
:100BE00003464068F8D318681844884207D00CF1CF
:100BF000030020F00700001D411A521A0146081D8B
:100C00000A60FFF759BB30B5B0F10A024FEA900E07
:100C100071F100034EEA817EB0EB0E0061EB9101B1
:100C20004FEA101E4EEA017E10EB0E0041EB11114F
:100C30004FEA102E4EEA016E10EB0E0041EB11212F
:100C40004FEA104E4EEA014E10EB0E0041EB1141FF
:100C5000401841F100014FEAD00040EA41704FEAEC
:100C6000D10110EB80054FEA810444EA907444EB13
:100C700001046D1944EB0404521BA3414FF000031F
:100C800048BF0A3200D530BD401C41F1000130BDE3
:100C90002DE9F0411F46044603260168072A01F4A6
:100CA000006004DB08B116A505E016A503E008B155
:100CB00015A500E015A521F010002060A069C01E58
:100CC000A0610FB1401EA0612046FFF731FB4FB17C
:100CD000D4E9012138469047206A401C2062C01C9C
:100CE000206206E0206AFAE7D4E9012115F8010B39
:100CF0009047761EF8D22046FFF730FBBDE8F08122
:100D00004E414E006E616E00494E4600696E6600AF
:100D10002DE9F047814616468AB0354878440DC81B
:100D20008DE80D0032487844801C03AC0DC884E87F
:100D30000D0041F69B300844372190FBF1F290FB07
:100D4000F1F5A5F1800501FB12041B3C02D56442BC
:100D5000012000E00020DFF898A080460027FA4438
:100D6000AAF1BE0A0EE0E0070AD03246684607EB59
:100D7000470101230AEB810100F0BEFB8DE807006B
:100D800064107F1C002CEED1194F7F44AE3F19E058
:100D9000E80715D007EB04100DF1180A90E80E00D3
:100DA0008AE80E00C068F04201D1981908903246D6
:100DB000012306A903A800F09FFB03AB83E807000B
:100DC0006D10641C002DE3D14FF0010332466946DB
:100DD000B8F1000F03A802D000F079FB01E000F0A9
:100DE0008BFBC9E90001C9F808200AB0BDE8F0870B
:100DF0004435000010B500F05FF8BDE8104000F089
:100E000055B84FF0000200B5134694469646203977
:100E100022BFA0E80C50A0E80C50B1F12001BFF4B3
:100E2000F7AF090728BFA0E80C5048BF0CC05DF819
:100E300004EB890028BF40F8042B08BF704748BF67
:100E400020F8022B11F0804F18BF00F8012B7047DB
:100E50007546FFF7AFFEAE4605006946534620F0E3
:100E60000700854618B020B5FFF700FABDE820401E
:100E70004FF000064FF000074FF000084FF0000B56
:100E800021F00701AC46ACE8C009ACE8C009ACE809
:100E9000C009ACE8C0098D46704710B50446AFF3F1
:100EA00000802046BDE81040FFF7CBB9002801D0F4
:100EB00000F06AB87047000010B5012805D0002185
:100EC00003A000F068F8012010BD09A1F8E70000B8
:100ED00053494752544D454D3A204F7574206F6623
:100EE0002068656170206D656D6F7279000000008B
:100EF0003A2048656170206D656D6F727920636F6F
:100F000072727570746564004FF0013C50F8042BE8
:100F100051F8043B9A4221D1A2EB0C03934313EA0C
:100F2000CC1317D150F8042B51F8043B9A4215D139
:100F3000A2EB0C03934313EACC130BD150F8042B10
:100F400051F8043B9A4209D1A2EB0C03934313EAF4
:100F5000CC13DBD04FF00000704700BFD01A01BAAD
:100F6000B1FA81F101F0180122FA01F0CB40C1F190
:100F70002001DBB2C0B2C01A2CFA01F3D11A91439E
:100F800011EAC311E6D1704701491820ABBEFEE754
:100F900026000200704770B505460C460A2000E0A6
:100FA0006D1C00F011F835B128780028F8D102E066
:100FB000641C00F009F814B120780028F8D1BDE8CD
:100FC00070400A20AFF3008008B569468DF8000034
:100FD0000320ABBE08BD5FEA400C08BF91F0000FD4
:100FE0004FEA8C234FEAC12243EA51514FEA1C5089
:100FF00018BF00F5F0404FEA300018BF41F0004143
:101000005FEA6C5C00F02980BCF1FF3F08BF40F054
:1010100080407047130C06BF12044FF0100C4FF0C5
:10102000000C130E04BF12020CF1080C130F04BFC6
:1010300012010CF1040C930F04BF92000CF1020C8E
:10104000D30F04BF52000CF1010C11464FF0000207
:10105000A0F11F00A0EB0C00704711F0004F08BF7B
:10106000704731F000413FF4D5AF0B0C06BF0904C7
:101070004FF0100C4FF0000C0B0E04BF09020CF1E6
:10108000080C0B0F04BF09010CF1040C8B0F04BFFB
:1010900089000CF1020CCB0F04BF49000CF1010CCC
:1010A000CCF12003A0EB0C0022FA03F302FA0CF2BD
:1010B00041EA030100F10100704720F07F4C80EA13
:1010C000030023F07F47ACEB070303F57C5300F0EC
:1010D000004003F1FF032DE980494FEA154B09B4A5
:1010E0004FEA144325EA0B4E24EA03480FF2042684
:1010F00006EB132749083E785FEA320203FB0667D6
:10110000C7F5000707FB06F64FEA54374FEAD64605
:1011100006F1020607FB066CCCF1005C4FEA1C47A7
:101120002CEA074C07FB06F40CFB06F504EB15460E
:101130004FEA961634BF00204FF000404FEAD137F7
:1011400006FB07FC4FEA1C4C0CFB0BF7D21B03FB06
:101150000CF761EB07010CFB0EF7B0EB074072EBED
:1011600017420CFB08F734BFA2EB0742B2EB074271
:1011700061EB17414FEA0C444FEA910706FB07FC6D
:101180004FEA1C4C0CFB0BF7B0EBC74072EB57322D
:1011900003FB0CF734BFA2EBC742B2EBC74261EBD3
:1011A00057310CFB0EF7B0EBC70072EB57720CFB1C
:1011B00008F734BFA2EBC702B2EBC70261EB57716D
:1011C000039F4FEA816141EA921104EBCC044FEA9C
:1011D000D1374FEA826206FB07FC42EA90124FEADF
:1011E00080604FEA1C4C0CFB0BF7D21B03FB0CF787
:1011F00061EB07010CFB0EF7B0EB074072EB1742F7
:101200000CFB08F734BFA2EB0742B2EB074261EBDD
:1012100017414FEA8C554FEA910704EB9C2406FBDB
:1012200007FC4FEA1C4C0CFB0BF7B0EBC74072EB12
:10123000573203FB0CF734BFA2EBC742B2EBC742F5
:1012400061EB57310CFB0EF7B0EBC70072EB577236
:101250000CFB08F734BFA2EBC702B2EBC70261EB8D
:10126000577115EB4C254FEA816141EA92114FEA23
:1012700082624FEAD13742EA901206FB07FC44F142
:1012800000044FEA80604FEA1C4C0CFB0BF7D21BAA
:1012900003FB0CF761EB07010CFB0EF7B0EB07400B
:1012A00072EB17420CFB08F734BFA2EB0742B2EB1C
:1012B000074261EB174115EB1C154FEA813141EAFA
:1012C00092414FEA823242EA90424FEA80304FEA3E
:1012D0000C7644F1000448EA03434EEA0B484FF011
:1012E000000EB2EB080C71EB030724BF62463946CF
:1012F0004EEB0E0E4FF0000B0018524149414BEBE4
:101300000B0BB2EB080C71EB03077BF1000B24BF56
:10131000624639464EEB0E0E4FF0000B001852415C
:1013200049414BEB0B0BB2EB080C71EB03077BF164
:10133000000B24BF624639464EEB0E0E51EA0207FF
:1013400018BF46F0010616EB0E7655F1000254F177
:10135000000103D5BDE88901BDE80088BDE8890129
:10136000BDE80048B619524141EB0101A3F1010368
:10137000704780807F7E7D7C7B7A79787776767502
:101380007473727171706F6E6E6D6C6C6B6A6A697A
:101390006868676666656464636362616160605F14
:1013A0005F5E5E5D5D5C5C5B5B5A5A59595858578D
:1013B00057565655555554545353525252515150F5
:1013C00050504F4F4F4E4E4D4D4D4C4C4C4B4B4B48
:1013D0004A4A4A494949484848474747474646468E
:1013E00045454544444444434343434242424241C9
:1013F0004141002B9C4630D477002BD01CB54FEADE
:10140000370703B44FF010004FF01001BAF1000F8E
:1014100006D0BCF1000FDCBF40F0080040F008012E
:101420004FF000000FBCBDE810400BF1010BBBF109
:10143000010F08BF5FEA170722BF12F1010211F185
:1014400001014FF0004143F1000300F0004043EA86
:1014500000007047F9D35708D0E746EA064613F173
:10146000400F4FEA16461FDD13F1200FDFBF164372
:101470000A46002120335B42BED0C3F1200746EA72
:10148000064602FA07F74FEA164646EA0706C3F190
:10149000200722FA03F201FA07F721FA03F14FF0CD
:1014A000000342EA0702A7E746EA020646EA0646C2
:1014B0004FEA164646EA0106BCBF46EA0646360C27
:1014C0004FF000034FF000024FF0000194E72DE9C8
:1014D000804C9A46934670B491E8380007C831EAC8
:1014E000400C48BF34EA430C03D5FFF7E6FDFFF795
:1014F00080FFF0BCBDE8008C2DE9804C9A469346F5
:1015000070B491E8380007C810F0804F08BF13F09E
:10151000804F03D100F005F8FFF76BFFF0BCBDE88A
:10152000008C20F07F4780EA030023F07F4C07EB1C
:101530000C03A3F57C5300F00040A3F1FE0392F0EE
:10154000000F00F0B38095F0000F00F077802DE9D8
:1015500001494FEA11404FEA144621EA004800FBD6
:1015600006FC24EA064708FB06F607FB08F800FB22
:1015700007F718EB06484CEB164C4FEA124B18EBEA
:1015800007484FEA15464CEB174022EA0B4E0BFB7F
:1015900006FC25EA06470EFB06F607FB0EFE0BFBD4
:1015A00007F71EEB064E4CEB164C4FF000061EEBF9
:1015B000074E4CEB174B18EB0B0840F1000018EBF3
:1015C0000E0B58EB000840F100008F1A4FF000019D
:1015D0003CBFC943661B14BFB5EB040C00213CBFE4
:1015E000C943F61B4FEA17444EEA8E0E27EA04451C
:1015F0004FEA1C4704FB07622CEA074C05FB07F780
:101600000CFB05F604FB0CFC16EB074642EB1742FD
:1016100016EB0C4642EB1C421BEB060658EB020293
:10162000414146EA9E0601D5BDE80189B6195241FD
:1016300041EB0101A3F10103BDE801894FEA144523
:101640004FEA114724EA054621EA074C05FB07F457
:1016500006FB07F70CFB06F105FB0CFC11EB074141
:1016600044EB17444FEA124711EB0C4144EB1C4486
:1016700022EA074C05FB07F206FB07F70CFB06F610
:1016800005FB0CFC16EB074642EB174216EB0C462B
:1016900042EB1C456A1854F1000148BF7047B61967
:1016A000524141EB0101A3F10103704795F0000F96
:1016B00037D04FEA11424FEA144721EA024624EAA2
:1016C000074C02FB07F106FB07F70CFB06F402FBD5
:1016D0000CFC14EB074441EB17414FEA154714EBA0
:1016E0000C4441EB1C4125EA074C02FB07F506FBC5
:1016F00007F70CFB06F602FB0CFC16EB074645EB66
:10170000174516EB0C4645EB1C42121951F100012E
:1017100048BF7047B619524141EB0101A3F10103E3
:1017200070474FEA14454FEA114724EA054621EA7B
:10173000074C05FB07F106FB07F70CFB06F24FF021
:10174000000605FB0CFC12EB074241EB174112EBC4
:101750000C4251EB1C4148BF7047921841EB01010C
:10176000A3F10103704700BFFEE7000000B5ADF52F
:10177000157DFE49FE4800F091FB0020949008E0A2
:10178000FC499498095CFC4A11549498401C80B21E
:10179000949094987D28F3DBF748401D00F05CFF9F
:1017A0008DED930AF448093000F056FF8DED920A52
:1017B000F1480D3000F050FF8DED910AEE481130E8
:1017C00000F04AFF8DED900AEB48153000F044FF21
:1017D0008DED8F0AE848193000F03EFF8DED8E0A3E
:1017E000E5481D3000F038FF8DED8D0AE2482130CC
:1017F00000F032FF8DED8C0ADF48253000F02CFF21
:101800008DED8B0ADC48293000F026FF8DED8A0A29
:10181000D9482D3000F020FF8DED890AD6483130AF
:1018200000F01AFF8DED880AD348353000F014FF20
:101830008DED870AD048393000F00EFF8DED860A15
:10184000CD483D3000F008FF8DED850ACA48413093
:1018500000F002FF8DED840AC748453000F0FCFE21
:101860008DED830AC448493000F0F6FE8DED820A02
:10187000C1484D3000F0F0FE8DED810ABE48513078
:1018800000F0EAFE8DED800ABB48553000F0E4FE22
:101890008DED7F0AB848593000F0DEFE8DED7E0AEE
:1018A000B5485D3000F0D8FE8DED7D0AB24861305C
:1018B00000F0D2FE8DED7C0AAF48653000F0CCFE22
:1018C0008DED7B0AAC48693000F0C6FE8DED7A0ADA
:1018D000A9486D3000F0C0FE8DED790AA648713040
:1018E00000F0BAFE8DED780AA348753000F0B4FE22
:1018F0008DED770AA048793000F0AEFE8DED760AC6
:101900009D4801F03FFA769802F0F2FB75917490D1
:10191000779802F0EDFB73917290789802F0E8FBF3
:1019200071917090799802F0E3FB6F916E907A98C4
:1019300002F0DEFB6D916C907B9802F0D9FB6B910D
:101940006A907C9802F0D4FB699168907D9802F0CF
:10195000CFFB679166907E9802F0CAFB6591649018
:101960007F9802F0C5FB63916290809802F0C0FB03
:1019700061916090819802F0BBFB5F915E908298CC
:1019800002F0B6FB5D915C90839802F0B1FB5B9135
:101990005A90849802F0ACFB59915890859802F0C7
:1019A000A7FB57915690869802F0A2FB5591549050
:1019B000879802F09DFB53915290889802F098FB13
:1019C00051915090899802F093FB4F914E908A98D4
:1019D00002F08EFB4D914C908B9802F089FB4B915D
:1019E0004A908C9802F084FB499148908D9802F0BF
:1019F0007FFB479146908E9802F07AFB4591449088
:101A00008F9802F075FB43914290909802F070FB22
:101A100041914090919802F06BFBCDE93E01929884
:101A200002F066FBCDE93C01939802F061FBCDE941
:101A30003A0175997498CDE9380173997298CDE996
:101A4000360171997098CDE934016F996E98CDE99E
:101A500032016D996C98CDE930016B996A98CDE9A6
:101A60002E0169996898CDE92C0167996698CDE9AE
:101A70002A0165996498CDE9280163996298CDE9B6
:101A8000260161996098CDE924015F995E98CDE9BE
:101A900022015D995C98CDE920015B995A98CDE9C6
:101AA0001E0159995898CDE91C0157995698CDE9CE
:101AB0001A0155995498CDE9180153995298CDE9D6
:101AC000160151995098CDE914014F994E98CDE9DE
:101AD00012014D994C98CDE910014B994A98CDE9E6
:101AE0000E0149994898CDE90C0147994698CDE9EE
:101AF0000A0145994498CDE9080143994298CDE9F6
:101B0000060141994098CDE90401DDE93E01CDE9A6
:101B10000201DDE93C01CDE900019DED3A0B53ECFA
:101B2000102B16491648FEF7EFFB779802F0E0FA03
:101B3000759174907B9802F0DBFA739172908198A2
:101B400002F0D6FA71917090849802F0D1FA6F91F8
:101B50006E90879802F0CCFA6D916C908B9802F0A1
:101B6000C7FA6B916A908F980CE000000088001013
:101B70002860024041080020E8010020E8440008F5
:101B8000B20A002002F0B4FA69916890939802F0CA
:101B9000AFFA6791669075997498CDE90C017399C5
:101BA0007298CDE90A0171997098CDE908016F9991
:101BB0006E98CDE906016D996C98CDE904016B9999
:101BC0006A98CDE9020169996898CDE900019DED17
:101BD000660B53EC102B8A498A48FEF795FB7698E2
:101BE00002F086FA759174907A9802F081FA7391F6
:101BF0007290809802F07CFA71917090839802F054
:101C000077FA6F916E90869802F072FA6D916C90EF
:101C10008A9802F06DFA6B916A908E9802F068FAD9
:101C200069916890929802F063FA6791669075994D
:101C30007498CDE90C0173997298CDE90A017199F4
:101C40007098CDE908016F996E98CDE906016D99FC
:101C50006C98CDE904016B996A98CDE90201699904
:101C60006898CDE900019DED660B53EC102B664999
:101C70006648FEF749FB799802F03AFA759174903C
:101C80007F9802F035FA73917290829802F030FAE0
:101C900071917090859802F02BFA6F916E908998EF
:101CA00002F026FA6D916C908D9802F021FA6B91FA
:101CB0006A90919802F01CFA6991689075997498ED
:101CC000CDE90A0173997298CDE90801719970986C
:101CD000CDE906016F996E98CDE904016D996C9874
:101CE000CDE902016B996A98CDE900019DED680B81
:101CF00053EC102B46494748FEF706FB789802F054
:101D0000F7F9759174907C9802F0F2F973917290E2
:101D10007D9802F0EDF9719170907E9802F0E8F9EB
:101D20006F916E90889802F0E3F96D916C908C98A9
:101D300002F0DEF96B916A90909802F0D9F96991FE
:101D4000689075997498CDE90A0173997298CDE9F4
:101D5000080171997098CDE906016F996E98CDE9E7
:101D600004016D996C98CDE902016B996A98CDE9EF
:101D700000019DED680B53EC102B27492748FEF717
:101D8000C3FA204801F024FD254908601F4801F0EE
:101D90001FFD244908601F4801F01AFD2249086010
:101DA0001E4801F015FD21490860214801F010FD91
:101DB000204908601A4820A102682548FEF7A4FAC5
:101DC00018481DA102682348FEF79EFA16481AA17A
:101DD00002682148FEF798FA144817A102681F48C4
:101DE000FEF792FA134814A102681D48FEF78CFA18
:101DF00001211C4800F06CF80DF5157D00BD0000B8
:101E000000440008A60C0020744400081E0D0020A9
:101E100030430008960D0020984300080E0E002065
:101E200094000020980000209C000020A0000020CA
:101E3000B20A0020B000002041542B434D515454AD
:101E40005041594C4F41443D302C25640D0A00004F
:101E500098100020CA100020FC1000202E11002035
:101E6000A40E0020286002400246094B9A4201D28B
:101E7000084801E00648103801F000531BB1064B3A
:101E80000B40C36002E0044B0B40836070470000CE
:101E900010640240006002407D0F7D0F0246094B36
:101EA0009A4201D2084801E00648103801F0005378
:101EB0001BB1064B0B40C36002E0044B0B40836038
:101EC0007047000010640240006002407D0F7D0FEB
:101ED00021B1026842F00102026003E0026822F0D0
:101EE00001020260704710B501F080034BB122B1CE
:101EF000436943F08003436103E0436923F08003B7
:101F0000436180290BD02AB1036801F01E042343EA
:101F1000036004E0036801F01E04A343036010BDE6
:101F200010B500220268134B1A40CC680B6823439B
:101F30004C6923438C692343CC6923430C6A2343B4
:101F40004C6A23438C6A23434C6B23438C6B23439F
:101F50001A430260426922F00702D1E90B3423439D
:101F60001A4342610B6943604B6883608B68C360AE
:101F700010BD00003F801CF07047000010B501202C
:101F800000F010F801200149087010BD8B000020FE
:101F900010B5022000F006F801200149087010BDBC
:101FA0008C0000200149086070470000143C01408B
:101FB000002123498279002A3AD00A461268036830
:101FC0009A430B461A600A1D126803689A430B1D58
:101FD0001A60027911440A6803681A430A60184AB1
:101FE0000832126803689A43154B08331A601A1DA9
:101FF000126803689A43124B0C331A604279102A14
:102000000ED11A1F126803681A430D4B08331A6069
:102010001A1D126803681A43094B0C331A600DE04D
:102020000749427911440A6803681A430A6005E0C7
:10203000027911440A6803689A430A6070470000F5
:10204000003C01400021016001710C21417100211F
:1020500081717047F0B50A4600210023002400BFBB
:102060003DE0012505FA01F3156805EA03049C42E9
:1020700034D105684F000326BE40B543056015798D
:102080004E00B5400668354305601579012D02D034
:102090001579022D16D185684F000326BE40B54341
:1020A000856055794E00B540866835438560456842
:1020B00001268E40B5434560456896798E40B6B29C
:1020C00035434560C5684F000326BE40B543C56033
:1020D000D5794E00B540C6683543C560491C102906
:1020E000BFD3F0BDF0B5002300244D07ED0E02FA7A
:1020F00005F3CE1000F1200555F826504E07F70ED7
:102100000F26BE40B543CF1000F1200646F82750F9
:10211000CE1000F1200555F8265045EA0304CE10F4
:1021200000F1200545F82640F0BD02460020136965
:102130000B400BB1012000E0002070470246002058
:1021400053690B400BB1012000E000207047418330
:1021500070470183704742694A404261704700BF3F
:10216000FEE721B1028842F48062028004E0028826
:102170004FF6FF331A400280704770B502460024C4
:10218000002500230020958A138B1B0445EA0306D3
:1021900026F07F4404EA01068E4201D1012000E0CE
:1021A000002070BD21B1028842F00102028004E0EB
:1021B00002884FF6FE731A400280704721B10288F0
:1021C00042F48072028004E002884FF6FF631A40F6
:1021D0000280704721B1028842F40072028004E05C
:1021E00002884FF6FF531A40028070470CB5024632
:1021F000002000230193009300920B0F019321F024
:102200007F41019B1BB1009B1433009303E0090C39
:10221000009B18330093009B1B680B400BB10120FF
:1022200000E000200CBD00002DE9FF4704460D46EC
:102230000026B1460427DFF8CC80A6884FF6C07090
:102240000640684600F094F9DDF808802E48B8FB97
:10225000F0F01FFA80F946EA0906A68020884FF6BA
:10226000FE710840208000262849286888420CD842
:1022700028684000B8FBF0F087B2042F00DA04278A
:102280003E4309F10100208427E0E8884BF6FF7106
:10229000884206D1286800EB4000B8FBF0F087B216
:1022A00009E0286800EBC00101EB0010B8FBF0F07A
:1022B00087B247F48047C7F30B0008B947F001071E
:1022C00047F4004006434FF4967009FB00F04FF4CA
:1022D0007A7190FBF1F0401C2084A683208840F0A6
:1022E0000100208026884FF6F5300640A8886989CD
:1022F000084306432680A889298908432081BDE830
:10230000FF87000000127A0040420F00A086010003
:102310000146088AC0B2704712B141F0010101E0E4
:1023200001F0FE01018270470182704770B50446DA
:1023300000212046FFF715FF01212046FFF74AFF45
:1023400000BF06492046FFF718FF0028F9D02046B5
:10235000FFF7DEFF0546284670BD00004000030081
:1023600070B505460E46144600BF4FF400312846AE
:10237000FFF73CFF0028F8D101212846FFF71EFF98
:1023800000BF0F492846FFF7F8FE0028F9D0224683
:1023900031462846FFF7C0FF3CB900BF094928462F
:1023A000FFF7EBFE0028F9D009E0012C07D100BFB0
:1023B0000349491C2846FFF7E0FE0028F8D070BD0D
:1023C000010003008200070010B5044600BF094960
:1023D0002046FFF7D2FE0028F9D001212046FFF762
:1023E000F9FE00BF0349091D2046FFF7C6FE00287D
:1023F000F8D010BD8000070070B504460D4600BF40
:1024000005492046FFF7B9FE0028F9D029462046A5
:10241000FFF78AFF70BD00008000070010B5194863
:10242000006819490988884205D01648006816498D
:102430000880002010BD13480068134909888842AD
:1024400006D111480088B0F5FA7F01D10020F1E7EC
:1024500000210C48001FFFF73BFD4FF4FA700949BB
:1024600008604FF081510748001FFFF7FDFC012174
:102470000448001FFFF72CFD03480088C0F5FA70E0
:1024800080B2D7E744640240BA00002000BFFEE7F4
:102490007047000070B5002100230F22C4781CB3E0
:1024A000174C246804F4E064C4F5E064C4F3072125
:1024B000C1F10404E3B20A4144789C40E1B284785B
:1024C000144021430C07210E0E4C05786155047809
:1024D00004F01F050124AC4005786D11AD0005F135
:1024E000E025C5F8004109E0047804F01F05012447
:1024F000AC40054D0678761145F8264070BD0000C9
:102500000CED00E000E400E080E100E07047000036
:1025100029B1064A12680243044B1A6004E0034AD8
:1025200012688243014B1A60704700003038024045
:1025300029B1064A12680243044B1A6004E0034AB8
:1025400012688243014B1A60704700004038024015
:1025500029B1064A12680243044B1A6004E0034A98
:1025600012688243014B1A607047000044380240F1
:10257000F0B5002100220024022500260223324F5C
:102580003F6807F00C0121B1042905D0082937D193
:1025900005E02E4F076036E02D4F076033E02A4FED
:1025A0003F1F3F68C7F38056274F3F1F3F6807F024
:1025B0003F036EB1264FB7FBF3F7DFF88CC0ACF1E9
:1025C000040CDCF800C0CCF3881C07FB0CF40CE016
:1025D0001E4FB7FBF3F7DFF870C0ACF1040CDCF86A
:1025E00000C0CCF3881C07FB0CF4174F3F1F3F685B
:1025F000C7F301477F1C7D00B4FBF5F7076002E0DD
:10260000124F076000BF00BF0F4F3F6807F0F00197
:102610000909104F7A5C0768D74047600A4F3F6846
:1026200007F4E051890A0B4F7A5C4768D74087600E
:10263000054F3F6807F46041490B064F7A5C4768D5
:10264000D740C760F0BD0000083802400024F40005
:1026500000127A00C600002030B54478057844EABC
:102660000522C478857844EA052343EA024100EE56
:10267000901AB0EE600A30BD7047000030B50022FD
:102680008B071C0F0F2303FA04F20B4B8C1053F82B
:1026900024309343084C8D1044F8253023468C1089
:1026A00053F824308C07240F00FA04F42343024C1F
:1026B0008D1044F8253030BD083801400CB500209D
:1026C000019000903448006840F48030324908603E
:1026D00000BF3148006800F4003000900198401CB1
:1026E0000190009818B90198B0F5A04FF1D12A488F
:1026F000006800F4003010B10120009001E00020DB
:1027000000900098012846D123484030006840F0EE
:1027100080502149403108602048006840F4404022
:102720001E4908601C48083000681B4908310860D1
:102730000846006840F4004008600846006840F41D
:10274000A05008601648091F0860081F006840F084
:102750008070091F086000BF0F48006800F000701B
:102760000028F9D040F205700E4908600A48083088
:10277000006820F003000849083108600846006836
:1027800040F00200086000BF03480830006800F015
:102790000C000828F8D10CBD003802400070004041
:1027A00008544007003C02400120044908600448E6
:1027B0000068401C024908607047000004000020C7
:1027C0000000002010B51548006840F4700013495F
:1027D00008601348006840F00100114908600020BB
:1027E0000F49083108600E4800680E4908400C493E
:1027F00008600D48091D0860081F006820F480204B
:10280000091F0860002006490C310860FFF756FFD9
:102810004FF0006001498039086010BD88ED00E08C
:1028200000380240FFFFF6FE1030002470B5012191
:10283000664800F00BF94FF480516548FFF78BFCB8
:1028400064A1664800F0D2FA30B1012064490870F2
:10285000624800F097FA02E000206149087061A127
:102860005E4800F0C3FA70B14FF400515848FFF7CA
:1028700070FC20215648FFF76CFC01205A49087073
:10288000564800F07FFA59A1544800F0AFFA70B1F1
:102890004FF400514E48FFF75AFC20214C48FFF7F7
:1028A00056FC0120504908704C4800F06BFA51A1C9
:1028B0004A4800F09BFA70B14FF480414448FFF75A
:1028C00048FC40214248FFF744FC01204A49087077
:1028D000424800F057FA49A1404800F087FA70B129
:1028E0004FF480413A48FFF732FC40213848FFF767
:1028F0002EFC012040490870384800F043FA41A1FD
:10290000364800F073FA28B1012043490870334873
:1029100000F038FA41A1314800F068FA28B10120EE
:10292000404908702D4800F02DFA3FA12B4800F0D7
:102930005DFA28B101203E490870284800F022FACB
:102940003CA1264800F052FA28B101203B4908700A
:10295000224800F017FA00F03FFD0446D4B10121EF
:102960004FF4E170FDF794FC0646002007E034497F
:10297000095C31543249095C184A1154401CA04288
:10298000F5DB224631462F4801F0C1F93046FDF70C
:1029900093FC00BFFFF742FD0546B5B101214FF49E
:1029A000E170FDF775FC0646002003E02649095C4E
:1029B0003154401CA842F9DB2A463146214801F037
:1029C000A6F93046FDF778FC00BF70BD001400404A
:1029D000000C0240444F4E450000000065020020FC
:1029E000850000204F4E3100860000204F464631C2
:1029F000000000004F4E3200870000204F46463254
:102A00000000000041542B434D5154545055423D59
:102A1000302C312C363000008D000020444C4F4EBD
:102A20000000000088000020444C4F464600000093
:102A3000890000205343414E000000008A0000201E
:102A400059040020004C0040BE080020CA43028206
:102A5000704721B1028842F00102028004E002883E
:102A60004FF6FE731A40028070471AB183890B43F8
:102A7000838102E083898B4383817047002202882F
:102A8000184B98420ED0184B98420BD0B0F1804FA3
:102A900008D0164B984205D0154B984202D0154BE2
:102AA000984204D14FF68F731A404B881A43124B49
:102AB000984207D0114B984204D04FF6FF431A407A
:102AC0000B891A4302804B68C3620B880385054B50
:102AD000984202D0044B984201D18B7A038601239D
:102AE0008382704700000140000401400004004060
:102AF00000080040000C004000100040001400409E
:102B000021B1828942F40052828104E082894DF62B
:102B1000FF731A40828170471AB1838A0B43838204
:102B200002E0838A8B438382704702460020B1F51E
:102B3000007F00D100BF13880B400BB1012000E0E3
:102B4000002070472DE9FF4705460E460024A146A8
:102B500000BFA046B08900B100BF2C8A24F44054C5
:102B6000F08804432C82AC8941F20C608443B08825
:102B700031890843718908430443AC81AC8A24F449
:102B80004074B0890443AC826846FFF7F1FC2048EA
:102B9000854202D01F48854202D1DDF80C9001E049
:102BA000DDF80890A88900F4004040B109EBC900A5
:102BB00000EB091031684900B0FBF1F707E009EBC1
:102BC000C90000EB091031688900B0FBF1F76420FF
:102BD000B7FBF0F004012009642101FB1078A889FB
:102BE00000F4004040B1322000EBC800B0FBF1F02F
:102BF00000F00700044308E0322000EB08106421D5
:102C0000B0FBF1F000F00F0004432C81BDE8FF871A
:102C10000010014000140140C1F308028280704797
:102C200070B505460C460BE000BF288800F0400058
:102C30000028FAD021782846FFF7EEFF14F8010BA0
:102C400020780028F0D170BD00BFFEE703B40198E2
:102C50004100009850EAC12018BF04204A0D18BF57
:102C600040F0010040F2FF72B2EB515F08BF40F04C
:102C70000200012808BF052002B0704730380A283A
:102C800001D20120704700207047000000B591B0CC
:102C90002BA1D1E901030A68C968CDE90F31CDE95B
:102CA0000D2001212A48FFF740FA08B9012000E071
:102CB000002030308DF840000F2259210DA800F07F
:102CC000DFFA24A30FCBCDE90B23CDE909010221C3
:102CD0001F48FFF72AFA08B9012000E00020303031
:102CE0008DF82F000E22682109A800F0C9FA1DA353
:102CF0000FCBCDE90723CDE9050120211448FFF7CB
:102D00001DFA3030C0B28DF81E000D22762105A8C4
:102D100000F0B6FA17A30FCBCDE90323CDE90101EB
:102D200040210B48FFF70AFA3030C0B28DF80E0090
:102D30000D22832101A800F0A3FA11B000BD00000C
:102D40002C2253656E736F7241223A2200222C00AE
:102D5000000C02402253656E736F7242223A2200C9
:102D6000222C00002252656C617941223A22002215
:102D70002C0000002252656C617942223A22002226
:102D80007D00000010B50346184600F021FD044602
:102D9000002002E000211954401CA042FAD3012077
:102DA00010BD000010B5044601211020FFF7C0FB44
:102DB00042F2CF000C490885601EC86200204862BC
:102DC00001208882002008820120088000BF064878
:102DD000008A0028FBD00020034908800021102031
:102DE000FFF7A6FB10BD00000010004070B50446C0
:102DF0000D4629462046FDF786FB06460EB9002003
:102E000070BD0120FCE70000F8B505460C461646EB
:102E10000022D0211148FFF7A3FA29460F48FFF7F7
:102E2000EBFA0E48FFF7D0FA0122D0210B48FFF74A
:102E300097FA0A48FFF77AFA00909DF800002040C0
:102E400000F00F019DF800002040001100EB800011
:102E500001EB400030600020F8BD0000005400404D
:102E600010B5034A3F210420FFF7CEFF10BD00003C
:102E70000800002010B5044600F06AF810B14FF0C9
:102E8000FF3010BD1D480078A07100F04DF810B162
:102E90004FF0FF30F5E719480078607100F03AF81C
:102EA00010B14FF0FF30ECE714480078207100F0CB
:102EB00027F810B14FF0FF30E3E710480078E070DA
:102EC000FFF7CEFF10B14FF0FF30DAE70B48007884
:102ED000A07000F033F810B14FF0FF30D1E7074891
:102EE0000078607000F03EF810B14FF0FF30C8E796
:102EF0000248007820700020C3E70000080000208E
:102F000010B5034A07210320FFF77EFF10BD000024
:102F10000800002010B5034A3F210220FFF774FF8C
:102F200010BD00000800002010B5034A7F210120D9
:102F3000FFF76AFF10BD00000800002010B5034A2B
:102F40001F210520FFF760FF10BD000008000020D2
:102F500010B5034A7F210020FFF756FF10BD000087
:102F60000800002010B5034AFF210620FFF74CFFA0
:102F700010BD0000080000201CB50446094903C923
:102F8000CDE900010021072000F00EF8401C10B927
:102F90004FF0FF301CBD1CB1684600F047F8F9E760
:102FA0000020F7E7E041000870B504460D460DA18A
:102FB0001448FFF735FE0022D0211348FFF7D0F95F
:102FC00012A11048FFF72CFE21460F48FFF714FA14
:102FD00029460D48FFF710FA0B48FFF7F5F90020D6
:102FE00070BD00006473313330375F7365745F7296
:102FF00074635F64617461204120656E74657265FD
:10300000640D0A00004800400054004064733133EE
:1030100030375F7365745F7274635F6461746120DD
:103020004220656E74657265640D0A0070B50446D1
:103030000022D0214448FFF793F900214248FFF7CE
:10304000DBF9A0790A2190FBF1F201FB1200A179D2
:103050000A2291FBF2F100EB011000F07F052946F6
:103060003948FFF7C9F960790A2190FBF1F201FBB9
:10307000120061790A2291FBF2F100EB011000F0DD
:103080007F0529463048FFF7B7F920790A2190FBE0
:10309000F1F201FB120021790A2291FBF2F100EB1F
:1030A000011000F03F0529462748FFF7A5F9E07811
:1030B0000A2190FBF1F201FB1200E1780A2291FB58
:1030C000F2F100EB011000F0070529461E48FFF75A
:1030D00093F9A0780A2190FBF1F201FB1200A1788C
:1030E0000A2291FBF2F100EB011000F03F052946A6
:1030F0001548FFF781F960780A2190FBF1F201FB96
:10310000120061780A2291FBF2F100EB011000F04D
:103110001F0529460C48FFF76FF920780A2190FB1C
:10312000F1F201FB120021780A2291FBF2F100EB8F
:103130000110C5B229460448FFF75EF90248FFF7BF
:1031400043F9002070BD0000005400402DE9F04715
:1031500006460F4615464FEA272807F0FF090121CA
:103160004448FFF72BF8642404E06420FFF71AFEBC
:10317000601EC4B240493F48FEF7FFFF08B9002C6B
:10318000F3D134B901213B48FFF724F80020BDE812
:10319000F0870022A0213748FFF7BEF8642404E03E
:1031A0006420FFF7FFFD601EC4B234493148FEF7CA
:1031B000E4FF08B9002CF3D12CB901212D48FFF709
:1031C00009F80020E3E741462A48FFF7ADF800BFC1
:1031D0002A49891C2748FEF7D0FF0028F8D0494625
:1031E0002448FFF7A1F800BF2449891C2148FEF7B5
:1031F000C4FF0028F8D001211E48FEF7DFFF00BF02
:103200001D491C48FEF7B9FF0028F9D00122A02172
:103210001848FFF781F800BF1749491C1548FEF709
:10322000ACFF0028F8D001211248FEF79AFF14E005
:10323000012D03D100210F48FEF793FF00BF0E4977
:103240003F310C48FEF799FF0028F8D00948FFF7F6
:103250005FF83070761C681E85B2002DE8D1012120
:103260000448FEF7B7FF4FF4FA70FFF79BFD01200B
:103270008DE70000005400400100030082000700B9
:103280002DE9F04707460E461446704200F01F082D
:103290004FF0010A24E0BAF1000F07D0444501DDE8
:1032A000454600E025464FF0000A04E0202C01DDF1
:1032B000202500E02546601B84B22A463146384668
:1032C00000F016F881462F44701986B24FF4FA7058
:1032D000FFF768FDB9F1000F02D10020BDE8F087CB
:1032E000002CD8D14FF4FA70FFF75CFD0120F5E710
:1032F0002DE9F04705460E4617464FEA262806F008
:10330000FF0901213148FEF759FF0A2404E0642037
:10331000FFF748FD601EC4B22D492C48FEF72DFF73
:1033200008B9002CF3D134B901212848FEF752FF27
:103330000020BDE8F0870022A0212448FEF7ECFF22
:103340001E2404E06420FFF72DFD601EC4B2214955
:103350001E48FEF712FF08B9002CF3D12CB9012149
:103360001A48FEF737FF0020E3E741461748FEF70B
:10337000DBFF00BF1749891C1448FEF7FEFE00283A
:10338000F8D049461148FEF7CFFF00BF1149891C0C
:103390000E48FEF7F2FE0028F8D00EE029780B4820
:1033A000FEF7C2FF00BF0B49891C0848FEF7E5FE87
:1033B0000028F8D06D1C781E87B2002FEED10121B5
:1033C0000248FEF707FF0120B3E700000054004069
:1033D000010003008200070010B519480068194970
:1033E0000988884205D016480068164908800020E0
:1033F00010BD1348006813490988884206D1114856
:103400000088B0F57A7F01D10020F1E700210C4857
:10341000001FFEF75DFD4FF47A70094908600A4904
:103420000748001FFEF720FD01210548001FFEF799
:103430004FFD04480088C0F57A7080B2D8E70000DC
:103440008C600240B60000200008002000B599B052
:1034500001210846FFF75CF801210820FFF758F822
:1034600001210420FFF754F801210220FFF750F852
:1034700001214804FFF75CF80121C804FFF758F860
:1034800001214805FFF744F801212020FFF760F8EB
:1034900001218805FFF73CF84FF470401790012098
:1034A0008DF8600000208DF8620003208DF8610027
:1034B00000208DF8630017A9B848FEF7CBFD102057
:1034C000179000208DF860008DF8620003208DF8C1
:1034D000610000208DF8630017A9B148FEF7BAFD1E
:1034E0006020179001208DF8600000208DF86200A8
:1034F00003208DF8610000208DF8630017A9A8480B
:10350000FEF7A8FD0420179001208DF86000002030
:103510008DF8620003208DF8610001208DF86300B2
:1035200017A9A048FEF796FD4FF4007017900120F0
:103530008DF8600000208DF862008DF86100012098
:103540008DF8630017A99748FEF784FD082206212D
:103550009548FEF7C7FD082207219348FEF7C2FDF4
:10356000072202218E48FEF7BDFD072203218C4869
:10357000FEF7B8FD082200218948FEF7B3FD0822B6
:1035800001218748FEF7AEFD4020179002208DF8FC
:1035900060008DF8610000208DF8620001208DF838
:1035A000630017A98048FEF755FD042017900220FC
:1035B0008DF8600000208DF8620001208DF8630016
:1035C00002208DF8610017A97548FEF743FD012020
:1035D000179002208DF8600000208DF86200012015
:1035E0008DF8630002208DF8610017A96C48FEF782
:1035F00031FD0820179002208DF8600017A9684857
:10360000FEF728FD8020179002208DF8600017A992
:103610006548FEF71FFD4FF4E13013900020ADF830
:103620005000ADF85200ADF85400ADF858000C2031
:10363000ADF8560013A95D48FFF784FA13A95C485A
:10364000FFF780FA01215948FFF75AFA012158483B
:10365000FFF756FA0820ADF8560013A95548FFF7B2
:1036600071FA01215348FFF74BFA4FF000600490C4
:103670004E48001D059050480690002007904FF4DA
:103680007A700890002009904FF480600A90002022
:103690000B900C900D904FF400300E9000200F9086
:1036A0000120109000201190129004A94348FEF7C9
:1036B00037FC01214148FEF70BFC012240213B4829
:1036C000FFF72AFA4FF0206004903948001D05905A
:1036D0003B480690002007904FF4FA7008900020B5
:1036E00009904FF480600A9000200B900C900D9090
:1036F0004FF400300E9000200F9001201090002019
:103700001190129004A92F48FEF70AFC01212D48C0
:10371000FEF7DEFB012240212548FFF7FDF90121DC
:103720000220FEF7F5FE01214805FEF701FFC0204B
:10373000179002208DF860008DF8610001208DF84F
:1037400062008DF8630017A91648FEF783FC042277
:1037500006211448FEF7C6FC042207211148FEF793
:10376000C1FC0020ADF804004BF6FF70ADF8060078
:103770000020ADF80800144800900020ADF80A00C1
:103780004FF48040ADF80C0069461048FEF74CFD40
:1037900001210E48FEF706FD19B000BD000C0240E5
:1037A00000000240000402400008024000440040C3
:1037B00000140140004C0040590400208860024081
:1037C000BE08002040640240A08601000054004072
:1037D0000146002000E0401C0A5C12B1B0F5006F09
:1037E000F9D370478AB0FFF731FE00F0A7FAFFF770
:1037F0004DFA002400250120FFF7BEFBD2E1402155
:10380000E948FEF7A6FCE9480078012832D18CBBD4
:1038100042F21071E64800F0B7FB5522E549E44852
:1038200000F05EFA42F21070FFF7BCFA15E042F2C7
:103830001071DF4800F0D6FB42F21071DC4800F056
:10384000A3FB5522DB49DA4800F04AFA42F2107035
:10385000FFF7A8FAD848FFF795FAD8A1D648FFF79E
:10386000C5FA0028E3D142F21071D14800F0DEFB26
:1038700001250124D348007810B34FF40041D24809
:10388000FEF767FC2021D048FEF758FCCF490870AE
:10389000CFA1D1E901030A68C968CDE90631CDE9B4
:1038A0000420CA4800783030C0B28DF81A000D22CA
:1038B000762104A8FFF7E4FC0020C249087004E068
:1038C0004FF40041C048FEF742FCC5480078D0B133
:1038D0004021BD48FEF732FCC2490870C2A30FCB9D
:1038E000CDE90623CDE90401BE4800783030C0B2EE
:1038F0008DF81A000D22832104A8FFF7C1FC0020D7
:10390000B749087000BFBC480078E8B10121AE4853
:10391000FEF70BFCB9490870B9A30FCBCDE906231C
:10392000CDE90401B548007808B9012000E0002085
:1039300030308DF81C000F22592104A8FFF7A0FC9D
:103940000020AD49087000BFB1480078E8B10221FD
:103950009D48FEF7EAFBAF490870AFA30FCBCDE956
:103960000623CDE90401AB48007808B9012000E046
:10397000002030308DF81B000E22682104A8FFF7CC
:103980007FFC0020A249087000BFA748007838B12A
:103990000222A6A1A64800F0A3F90020A2490870BF
:1039A000A448007838B10322A3A1A14800F098F9F7
:1039B0000020A0490870A148007838B10422A0A1D5
:1039C0009B4800F08DF900209C490870012D7CD1A6
:1039D00008A8FFF74FFA9DF826009DF825109DF8DE
:1039E00024209DF82330CDE90132CDE903109DF864
:1039F000200000909DF821309DF8222092499348A4
:103A0000FCF782FC372259219148FFF79FFB8F4832
:103A1000FFF7DEFE8F4908608D48FFF7D9FE8E491B
:103A200008608C480068096808448C4908600846AA
:103A30008BA102689048FCF767FC00BF41F2883018
:103A4000FFF7B0F914228DA1594800F049F941F26D
:103A50008830FFF7A7F90F228EA1554800F040F9F2
:103A600040F6B830FFF79EF98348FCF75EFD86B25A
:103A7000324681494E4800F033F97648008882B2D8
:103A800000217248FFF7FCFB7248008882B20021D7
:103A90008448FFF75BFB4FF4FA60FFF783F96D484A
:103AA000008882B27F49424800F01AF96A480088CB
:103AB00082B267493E4800F013F940F6B830FFF78C
:103AC00071F9142278A13A4800E06BE000F008F99F
:103AD00042F21070FFF766F9142268A1344800F032
:103AE000FFF841F28830FFF75DF90F2269A13048F5
:103AF00000F0F6F869027248FEF72BFB04217048CB
:103B0000FEF727FB6FA103C9CDE90601082206A92C
:103B10006E4800F0E5F804216948FEF718FB6902D9
:103B20006748FEF714FB4FF4FA60FFF73BF968486B
:103B3000FFF74EFE67490860084649A102686648DB
:103B4000FCF7E2FB6348008882B291216048FFF7EE
:103B500097FB6148FCF7E9FC86B232465E4914489F
:103B600000F0BEF841F28830FFF71CF95948008890
:103B700082B291215948FFF7E9FA5648008882B28B
:103B800056490B4800F0ACF84FF4FA50FFF70AF929
:103B9000142245A1064800F0A3F843F69820FFF749
:103BA00001F900BF2BE60000000002408500002064
:103BB000004400407C420008650200204552524FFC
:103BC0005200000086000020000C024091000020FE
:103BD0002252656C617941223A2200222C000000B9
:103BE00087000020920000202252656C61794222F9
:103BF0003A2200227D0000008B0000208F00002070
:103C00002C2253656E736F7241223A2200222C00DF
:103C10008C000020900000202253656E736F72426A
:103C2000223A2200222C0000880000206F6E000043
:103C300000140140890000206F6666008A000020A1
:103C40007363616E00000000D4420008121200206D
:103C5000A4150020A4000020A8000020AC00002033
:103C600041542B434D5154545041594C4F41443DC4
:103C7000302C25640D0A00006011002041542B43B4
:103C80004D515454544F5049433D302C31350D0A59
:103C900000000000436162696E6574446576696383
:103CA000653031006B12002041542B434D51545468
:103CB0005055423D302C312C36300D0A00000000AA
:103CC0000004024001040000003CF01B00480040DA
:103CD000B20A0020B0000020A40E002042130020F1
:103CE0002DE9F04107460D46164600240BE000BFC3
:103CF00040213846FEF719FF0028F9D0295D3846E3
:103D0000FEF78AFF641CB442F1DBBDE8F0812DE9C7
:103D1000F04107460D46164600240BE000BF402147
:103D20003846FEF702FF0028F9D0295D3846FEF735
:103D300073FF641CB442F1DBBDE8F08100B59DB0B7
:103D400001218804FEF7F4FB01210220FEF7E0FBCD
:103D500001210820FEF7DCFB01214805FEF7D8FB16
:103D600001218803FEF7F4FB07220A218048FEF7B1
:103D7000B9F907220B217E48FEF7B4F90121202072
:103D8000FEF7D6FB4FF480601B9002208DF8700088
:103D900000208DF8720001208DF8730002208DF84C
:103DA00071001BA97248FEF755F94FF400601B9093
:103DB00002208DF8700000208DF8720001208DF82F
:103DC000730002208DF871001BA96948FEF742F9C3
:103DD0004FF4165017900020ADF86000ADF8620067
:103DE000ADF86400ADF868000C20ADF8660017A9C6
:103DF0006048FEF7A7FE01215E48FEF781FE012222
:103E000040215C48FEF788FE4FF00060089059485A
:103E1000001D099058480A9000200B907D200C90BE
:103E200000200D904FF480600E9000200F901090B5
:103E300011904FF400301290002013900120149044
:103E400000201590169008A94C48FEF769F801214A
:103E50004A48FEF73DF80C208DF8080000208DF848
:103E600009008DF80A0001208DF80B0002A8FEF76A
:103E700011FB012210214148FEF735F840F247308E
:103E8000ADF814000020ADF8160042F20F70069055
:103E90000020ADF81C008DF81E0005A93848FEF77B
:103EA000EDFD37208DF8040002208DF805008DF817
:103EB000060001208DF8070001A8FEF7EBFA0121AA
:103EC0002F48FEF7C6FD012211462D48FEF7CDFD15
:103ED00000208DF8700001208DF8730003201B90E6
:103EE0001BA92848FEF7B6F860201B9001208DF82A
:103EF000700000208DF873001BA92248FEF7AAF875
:103F000000210320FEF7BAFB01210320FEF7B6FBD8
:103F100006208DF808000F208DF809008DF80A00A2
:103F200001208DF80B0002A8FEF7B4FA07208DF8E7
:103F300008000F208DF809008DF80A0001208DF887
:103F40000B0002A8FEF7A6FA03A8FEF77BF80320F1
:103F5000039000208DF8100010208DF81100012032
:103F60008DF8120003A8FEF723F81DB000BD000075
:103F70000004024000480040410800202860024040
:103F800000140040000C024070B505460C460F229C
:103F900007A12846FFF7A4FE2046FEF703FF2222D2
:103FA00007A12846FFF79CFE2046FEF7FBFE70BDEA
:103FB00041542B434D51545453544152540D0A0013
:103FC00041542B434D515454414343513D302C22D5
:103FD000436162696E657444657669636530312258
:103FE0000D0A000070B505460C460F2207A12846B1
:103FF000FFF776FE2046FEF7D5FE0E2207A12846E3
:10400000FFF76EFE2046FEF7CDFE70BD41542B43F8
:104010004D51545452454C3D300D0A0041542B43F0
:104020004D51545453544F500D0A000070B505467D
:104030000C4619220FA12846FFF752FE2046FEF734
:10404000B1FE0D2212A12846FFF74AFE2046FEF7D8
:10405000A9FE142212A12846FFF742FE2046FEF7D1
:10406000A1FE0D220AA12846FFF73AFE2046FEF7E0
:1040700099FE70BD41542B434D51545453554254F5
:104080004F5049433D302C31332C310D0A00000094
:10409000436162696E65744465766963650000001A
:1040A00041542B434D5154545355423D302C3133E0
:1040B0002C310D0A0000000010B500290AD0087844
:1040C000002807D005487844FCF71EFF002801D0DF
:1040D000002010BD0248784410BD0000FE0500001D
:1040E000F60500000808A0F500114FEA31017047FD
:1040F00043004FEAD30C4FEA3C0C43401FBF40073C
:104100000CF1605113F0FE4F70471CF0006F03D1AB
:1041100000200CF0004170470CF0004343EA50705F
:1041200010B540EACC0000F00EF800BF000000928D
:104130004FEA0001FFF7D6BF4FF000414FF00000FB
:10414000A1F5002170470EF1020E2EF0030E5EF86D
:10415000044B244204D44FEA4102B2F17F4F11D8FC
:104160004FEA4003B3F17F4F0CD80ED14FEAD07C19
:10417000B2F17F4F0CEB4C0C0CF1020C08BF4CEB76
:10418000D17C04E04FF0080C01E04FEAD17C0CEB4D
:104190004C0324FA03F404F00704B4F1040C06D22F
:1041A0000EEB840CBDE810404CF0010C6047DFE8DA
:1041B0000CF0070802024FF00040A0F5800010BD8F
:1041C0000846420018BFD2F1807288BF00F000405C
:1041D00010BD4FF04070E1EE100A7047FCF774BB61
:1041E000150805041631140002400000000000A06C
:1041F0000000000005400000000000C800000000B2
:104200000C4000000000409C00000000194000002D
:104210000020BCBE0000000034400000BFC91B8E5F
:1042200000000004B5400000504BCFD06607E2CF3D
:10423000010000006C4100003E8251AADFEEA7346D
:1042400001000000D9420000DCB5A0E23A301F971F
:10425000FFFFFFFFB4450000FD25A0C8E9A3C14F43
:10426000FFFFFFFFFF3F0000000000800000000094
:10427000FF3F0000000000800000000041542B437D
:104280004D515454434F4E4E4543543D302C2274AF
:1042900063703A2F2F7461696C6F722E636C6F7547
:1042A000646D7174742E636F6D3A31313034352220
:1042B0002C36302C312C22626F626970786A75223C
:1042C0002C222D367248526331356E466447220DDA
:1042D0000A0000007B2264617465223A2225642270
:1042E0002C226D6F6E7468223A222564222C22796A
:1042F000656172223A222564222C22646179223A75
:10430000222564222C22686F7572223A22256422AB
:104310002C226D696E75746573223A222564222CF5
:10432000227365636F6E6473223A22256422000053
:104330007B2256334E223A2225332E3366222C22FC
:10434000563331223A2225332E3366222C2249332A
:10435000223A2225332E3366222C224B5733223A1F
:104360002225332E3366222C224B564133223A2209
:1043700025332E3366222C224B56415233223A22C9
:1043800025332E3366222C22504633223A22252E04
:104390003366227D000000007B224C4E223A22250B
:1043A000332E3366222C224C4C223A2225332E33D4
:1043B00066222C224149223A2225332E3366222CB2
:1043C00022545F4B57223A2225332E3366222C2269
:1043D000545F4B5641223A2225332E3366222C223B
:1043E000545F4B564152223A2225332E3366222CFB
:1043F00022415F5646223A22252E3366227D000056
:104400007B2256314E223A2225332E3366222C222D
:10441000563132223A2225332E3366222C2249315C
:10442000223A2225332E3366222C224B5731223A50
:104430002225332E3366222C224B564131223A223A
:1044400025332E3366222C224B56415231223A22FA
:1044500025332E3366222C22504631223A22252E35
:104460003366222C2266223A2225322E3366227DA2
:10447000000000007B2256324E223A2225332E3392
:1044800066222C22563233223A2225332E336622DC
:104490002C224932223A2225332E3366222C224BFB
:1044A0005732223A2225332E3366222C224B564194
:1044B00032223A2225332E3366222C224B56415289
:1044C00032223A2225332E3366222C2250463222C3
:1044D0003A22252E3366222C224B5748223A222597
:1044E000332E3366227D00007B2256314E223A2243
:1044F00025332E3366222C2256324E223A22253381
:104500002E3366222C2256334E223A2225332E3366
:1045100066222C2241565F4C4E223A2225332E33FE
:1045200066222C22563132223A2225332E3366223D
:104530002C22563233223A2225332E3366222C2265
:10454000563331223A2225332E3366222C2241560D
:104550005F4C4C223A2225332E3366222C224931DD
:10456000223A2225332E3366222C224932223A2245
:1045700025332E3366222C224933223A2225332E2C
:104580003366222C224149223A2225332E336622D9
:104590002C224B5731223A2225332E3366222C22ED
:1045A0004B5732223A2225332E3366222C224B5788
:1045B00033223A2225332E3366222C224B564131A8
:1045C000223A2225332E3366222C224B56413222A8
:1045D0003A2225332E3366222C224B564133223A7F
:1045E0002225332E3366222C224B56415231223A59
:1045F0002225332E3366222C224B56415232223A48
:104600002225332E3366222C224B56415233223A36
:104610002225332E3366222C22546F74616C5F4B3B
:1046200057223A2225332E3366222C22546F74618E
:104630006C5F4B5641223A2225332E3366222C22C0
:10464000546F74616C5F4B564152223A2225332ECF
:104650003366222C22504631223A22252E336622FE
:104660002C22504632223A22252E3366222C22500A
:104670004633223A22252E3366222C22415F5646AB
:10468000223A22252E3366222C2266223A22253215
:104690002E3366222C224B5748223A2225332E33C2
:1046A00066227D00E046000800000020D8000000DF
:1046B000C4010008B8470008D8000020881B00008B
:1046C000E00100081C00000043000000F8FFFFFFAD
:1046D0000C0000000E0000000F0000002E00000083
:1046E00000000000000000000000000000000000CA
:1046F00000000000000000000000000000000000BA
:1047000000000000000000000000000000000000A9
:104710000000000000000000000000000000000099
:104720000000000000000000000000000000000089
:104730000000000000000000000000000000000079
:104740000000000000000000000000000000000069
:104750000000000000000000000000000000000059
:104760000000000000000000000000000000000049
:104770000000000000000000000000000000000039
:104780000000000000000000000000000000000029
:104790000000000000000000000000000000000019
:1047A00000000000000000000000010203040102FC
:0847B0000304060708090000DC
:04000005080002519C
:00000001FF
